{
  "_format": "hh-sol-artifact-1",
  "contractName": "Voting",
  "sourceName": "contracts/Voting.sol",
  "abi": [
    {
      "inputs": [],
      "stateMutability": "nonpayable",
      "type": "constructor"
    },
    {
      "inputs": [
        {
          "internalType": "address",
          "name": "owner",
          "type": "address"
        }
      ],
      "name": "OwnableInvalidOwner",
      "type": "error"
    },
    {
      "inputs": [
        {
          "internalType": "address",
          "name": "account",
          "type": "address"
        }
      ],
      "name": "OwnableUnauthorizedAccount",
      "type": "error"
    },
    {
      "anonymous": false,
      "inputs": [
        {
          "indexed": false,
          "internalType": "string",
          "name": "candidate_name",
          "type": "string"
        }
      ],
      "name": "AddedCandidate",
      "type": "event"
    },
    {
      "anonymous": false,
      "inputs": [
        {
          "indexed": false,
          "internalType": "uint256",
          "name": "candidate_id",
          "type": "uint256"
        }
      ],
      "name": "CastedVote",
      "type": "event"
    },
    {
      "anonymous": false,
      "inputs": [
        {
          "indexed": true,
          "internalType": "address",
          "name": "previousOwner",
          "type": "address"
        },
        {
          "indexed": true,
          "internalType": "address",
          "name": "newOwner",
          "type": "address"
        }
      ],
      "name": "OwnershipTransferred",
      "type": "event"
    },
    {
      "inputs": [
        {
          "internalType": "string",
          "name": "candidate_name",
          "type": "string"
        }
      ],
      "name": "addCandidate",
      "outputs": [],
      "stateMutability": "nonpayable",
      "type": "function"
    },
    {
      "inputs": [],
      "name": "endVotingPeriod",
      "outputs": [],
      "stateMutability": "nonpayable",
      "type": "function"
    },
    {
      "inputs": [
        {
          "internalType": "uint256",
          "name": "id",
          "type": "uint256"
        }
      ],
      "name": "getCandidate",
      "outputs": [
        {
          "components": [
            {
              "internalType": "uint256",
              "name": "id",
              "type": "uint256"
            },
            {
              "internalType": "string",
              "name": "name",
              "type": "string"
            },
            {
              "internalType": "uint256",
              "name": "votes",
              "type": "uint256"
            }
          ],
          "internalType": "struct Voting.Candidate",
          "name": "",
          "type": "tuple"
        }
      ],
      "stateMutability": "view",
      "type": "function"
    },
    {
      "inputs": [
        {
          "internalType": "uint256",
          "name": "candidate_id",
          "type": "uint256"
        }
      ],
      "name": "getCandidateVotesCount",
      "outputs": [
        {
          "internalType": "uint256",
          "name": "votes_count",
          "type": "uint256"
        }
      ],
      "stateMutability": "view",
      "type": "function"
    },
    {
      "inputs": [],
      "name": "getCandidates",
      "outputs": [
        {
          "components": [
            {
              "internalType": "uint256",
              "name": "id",
              "type": "uint256"
            },
            {
              "internalType": "string",
              "name": "name",
              "type": "string"
            },
            {
              "internalType": "uint256",
              "name": "votes",
              "type": "uint256"
            }
          ],
          "internalType": "struct Voting.Candidate[]",
          "name": "",
          "type": "tuple[]"
        }
      ],
      "stateMutability": "view",
      "type": "function"
    },
    {
      "inputs": [],
      "name": "getCandidatesCount",
      "outputs": [
        {
          "internalType": "uint256",
          "name": "",
          "type": "uint256"
        }
      ],
      "stateMutability": "view",
      "type": "function"
    },
    {
      "inputs": [],
      "name": "getWinner",
      "outputs": [
        {
          "components": [
            {
              "internalType": "uint256",
              "name": "id",
              "type": "uint256"
            },
            {
              "internalType": "string",
              "name": "name",
              "type": "string"
            },
            {
              "internalType": "uint256",
              "name": "votes",
              "type": "uint256"
            }
          ],
          "internalType": "struct Voting.Candidate",
          "name": "winner",
          "type": "tuple"
        }
      ],
      "stateMutability": "view",
      "type": "function"
    },
    {
      "inputs": [],
      "name": "owner",
      "outputs": [
        {
          "internalType": "address",
          "name": "",
          "type": "address"
        }
      ],
      "stateMutability": "view",
      "type": "function"
    },
    {
      "inputs": [],
      "name": "renounceOwnership",
      "outputs": [],
      "stateMutability": "nonpayable",
      "type": "function"
    },
    {
      "inputs": [],
      "name": "startVotingPeriod",
      "outputs": [],
      "stateMutability": "nonpayable",
      "type": "function"
    },
    {
      "inputs": [
        {
          "internalType": "address",
          "name": "newOwner",
          "type": "address"
        }
      ],
      "name": "transferOwnership",
      "outputs": [],
      "stateMutability": "nonpayable",
      "type": "function"
    },
    {
      "inputs": [
        {
          "internalType": "uint256",
          "name": "candidate_id",
          "type": "uint256"
        }
      ],
      "name": "vote",
      "outputs": [],
      "stateMutability": "nonpayable",
      "type": "function"
    }
  ],
  "bytecode": "0x608060405234801561001057600080fd5b5033600073ffffffffffffffffffffffffffffffffffffffff168173ffffffffffffffffffffffffffffffffffffffff16036100845760006040517f1e4fbdf700000000000000000000000000000000000000000000000000000000815260040161007b91906101c1565b60405180910390fd5b610093816100bc60201b60201c565b5060006004819055506000600560006101000a81548160ff0219169083151502179055506101dc565b60008060009054906101000a900473ffffffffffffffffffffffffffffffffffffffff169050816000806101000a81548173ffffffffffffffffffffffffffffffffffffffff021916908373ffffffffffffffffffffffffffffffffffffffff1602179055508173ffffffffffffffffffffffffffffffffffffffff168173ffffffffffffffffffffffffffffffffffffffff167f8be0079c531659141344cd1fd0a4f28419497f9722a3daafe3b4186f6b6457e060405160405180910390a35050565b600073ffffffffffffffffffffffffffffffffffffffff82169050919050565b60006101ab82610180565b9050919050565b6101bb816101a0565b82525050565b60006020820190506101d660008301846101b2565b92915050565b6115fe806101eb6000396000f3fe608060405234801561001057600080fd5b50600436106100b45760003560e01c80638da5cb5b116100715780638da5cb5b146101795780638e7ea5b214610197578063bb9aa28f146101b5578063c64482ab146101d3578063e80a57a5146101dd578063f2fde38b146101e7576100b4565b80630121b93f146100b957806306a49fce146100d55780630bfdd638146100f357806335b8e82014610123578063462e91ec14610153578063715018a61461016f575b600080fd5b6100d360048036038101906100ce9190610be4565b610203565b005b6100dd610414565b6040516100ea9190610dc2565b60405180910390f35b61010d60048036038101906101089190610be4565b610574565b60405161011a9190610df3565b60405180910390f35b61013d60048036038101906101389190610be4565b610591565b60405161014a9190610e5e565b60405180910390f35b61016d60048036038101906101689190610ee5565b610664565b005b61017761076f565b005b610181610783565b60405161018e9190610f73565b60405180910390f35b61019f6107ac565b6040516101ac9190610e5e565b60405180910390f35b6101bd610922565b6040516101ca9190610df3565b60405180910390f35b6101db61092c565b005b6101e5610985565b005b61020160048036038101906101fc9190610fba565b6109aa565b005b60011515600560009054906101000a900460ff16151514610259576040517f08c379a000000000000000000000000000000000000000000000000000000000815260040161025090611044565b60405180910390fd5b600360003373ffffffffffffffffffffffffffffffffffffffff1673ffffffffffffffffffffffffffffffffffffffff16815260200190815260200160002060009054906101000a900460ff16156102e6576040517f08c379a00000000000000000000000000000000000000000000000000000000081526004016102dd906110b0565b60405180910390fd5b600454811061032a576040517f08c379a00000000000000000000000000000000000000000000000000000000081526004016103219061111c565b60405180910390fd5b6001600360003373ffffffffffffffffffffffffffffffffffffffff1673ffffffffffffffffffffffffffffffffffffffff16815260200190815260200160002060006101000a81548160ff02191690831515021790555060016002600083815260200190815260200160002060008282546103a6919061116b565b92505081905550600180600083815260200190815260200160002060020160008282546103d3919061116b565b925050819055507fcae3127a7dc63798cf005dc4725b886a06b7beee7b4a51cefdb5975db78d6861816040516104099190610df3565b60405180910390a150565b6060600060045467ffffffffffffffff8111156104345761043361119f565b5b60405190808252806020026020018201604052801561046d57816020015b61045a610b83565b8152602001906001900390816104525790505b50905060005b60045481101561056c5760016000828152602001908152602001600020604051806060016040529081600082015481526020016001820180546104b5906111fd565b80601f01602080910402602001604051908101604052809291908181526020018280546104e1906111fd565b801561052e5780601f106105035761010080835404028352916020019161052e565b820191906000526020600020905b81548152906001019060200180831161051157829003601f168201915b505050505081526020016002820154815250508282815181106105545761055361122e565b5b60200260200101819052508080600101915050610473565b508091505090565b600060026000838152602001908152602001600020549050919050565b610599610b83565b60016000838152602001908152602001600020604051806060016040529081600082015481526020016001820180546105d1906111fd565b80601f01602080910402602001604051908101604052809291908181526020018280546105fd906111fd565b801561064a5780601f1061061f5761010080835404028352916020019161064a565b820191906000526020600020905b81548152906001019060200180831161062d57829003601f168201915b505050505081526020016002820154815250509050919050565b61066c610a30565b60006040518060600160405280600454815260200184848080601f016020809104026020016040519081016040528093929190818152602001838380828437600081840152601f19601f82011690508083019250505050505050815260200160008152509050806001600060045481526020019081526020016000206000820151816000015560208201518160010190816107079190611409565b5060408201518160020155905050600160046000828254610728919061116b565b925050819055507f2be308c1220be2d6ae99d47d9bc419e46f5ec900fe45ee50075716e8c40f4f2f81602001516040516107629190611514565b60405180910390a1505050565b610777610a30565b6107816000610ab7565b565b60008060009054906101000a900473ffffffffffffffffffffffffffffffffffffffff16905090565b6107b4610b83565b60001515600560009054906101000a900460ff1615151461080a576040517f08c379a0000000000000000000000000000000000000000000000000000000008152600401610801906115a8565b60405180910390fd5b6000805b6004548110156108575760026000838152602001908152602001600020546002600083815260200190815260200160002054111561084a578091505b808060010191505061080e565b506001600082815260200190815260200160002060405180606001604052908160008201548152602001600182018054610890906111fd565b80601f01602080910402602001604051908101604052809291908181526020018280546108bc906111fd565b80156109095780601f106108de57610100808354040283529160200191610909565b820191906000526020600020905b8154815290600101906020018083116108ec57829003601f168201915b5050505050815260200160028201548152505091505090565b6000600454905090565b610934610a30565b60005b60045481101561096757600060026000838152602001908152602001600020819055508080600101915050610937565b506001600560006101000a81548160ff021916908315150217905550565b61098d610a30565b6000600560006101000a81548160ff021916908315150217905550565b6109b2610a30565b600073ffffffffffffffffffffffffffffffffffffffff168173ffffffffffffffffffffffffffffffffffffffff1603610a245760006040517f1e4fbdf7000000000000000000000000000000000000000000000000000000008152600401610a1b9190610f73565b60405180910390fd5b610a2d81610ab7565b50565b610a38610b7b565b73ffffffffffffffffffffffffffffffffffffffff16610a56610783565b73ffffffffffffffffffffffffffffffffffffffff1614610ab557610a79610b7b565b6040517f118cdaa7000000000000000000000000000000000000000000000000000000008152600401610aac9190610f73565b60405180910390fd5b565b60008060009054906101000a900473ffffffffffffffffffffffffffffffffffffffff169050816000806101000a81548173ffffffffffffffffffffffffffffffffffffffff021916908373ffffffffffffffffffffffffffffffffffffffff1602179055508173ffffffffffffffffffffffffffffffffffffffff168173ffffffffffffffffffffffffffffffffffffffff167f8be0079c531659141344cd1fd0a4f28419497f9722a3daafe3b4186f6b6457e060405160405180910390a35050565b600033905090565b60405180606001604052806000815260200160608152602001600081525090565b600080fd5b600080fd5b6000819050919050565b610bc181610bae565b8114610bcc57600080fd5b50565b600081359050610bde81610bb8565b92915050565b600060208284031215610bfa57610bf9610ba4565b5b6000610c0884828501610bcf565b91505092915050565b600081519050919050565b600082825260208201905092915050565b6000819050602082019050919050565b610c4681610bae565b82525050565b600081519050919050565b600082825260208201905092915050565b60005b83811015610c86578082015181840152602081019050610c6b565b60008484015250505050565b6000601f19601f8301169050919050565b6000610cae82610c4c565b610cb88185610c57565b9350610cc8818560208601610c68565b610cd181610c92565b840191505092915050565b6000606083016000830151610cf46000860182610c3d565b5060208301518482036020860152610d0c8282610ca3565b9150506040830151610d216040860182610c3d565b508091505092915050565b6000610d388383610cdc565b905092915050565b6000602082019050919050565b6000610d5882610c11565b610d628185610c1c565b935083602082028501610d7485610c2d565b8060005b85811015610db05784840389528151610d918582610d2c565b9450610d9c83610d40565b925060208a01995050600181019050610d78565b50829750879550505050505092915050565b60006020820190508181036000830152610ddc8184610d4d565b905092915050565b610ded81610bae565b82525050565b6000602082019050610e086000830184610de4565b92915050565b6000606083016000830151610e266000860182610c3d565b5060208301518482036020860152610e3e8282610ca3565b9150506040830151610e536040860182610c3d565b508091505092915050565b60006020820190508181036000830152610e788184610e0e565b905092915050565b600080fd5b600080fd5b600080fd5b60008083601f840112610ea557610ea4610e80565b5b8235905067ffffffffffffffff811115610ec257610ec1610e85565b5b602083019150836001820283011115610ede57610edd610e8a565b5b9250929050565b60008060208385031215610efc57610efb610ba4565b5b600083013567ffffffffffffffff811115610f1a57610f19610ba9565b5b610f2685828601610e8f565b92509250509250929050565b600073ffffffffffffffffffffffffffffffffffffffff82169050919050565b6000610f5d82610f32565b9050919050565b610f6d81610f52565b82525050565b6000602082019050610f886000830184610f64565b92915050565b610f9781610f52565b8114610fa257600080fd5b50565b600081359050610fb481610f8e565b92915050565b600060208284031215610fd057610fcf610ba4565b5b6000610fde84828501610fa5565b91505092915050565b600082825260208201905092915050565b7f566f74696e6720706572696f64206e6f742072756e6e696e6721000000000000600082015250565b600061102e601a83610fe7565b915061103982610ff8565b602082019050919050565b6000602082019050818103600083015261105d81611021565b9050919050565b7f596f7520616c726561647920766f746564210000000000000000000000000000600082015250565b600061109a601283610fe7565b91506110a582611064565b602082019050919050565b600060208201905081810360008301526110c98161108d565b9050919050565b7f5468652063616e64696461746520646f6573206e6f7420657869737421000000600082015250565b6000611106601d83610fe7565b9150611111826110d0565b602082019050919050565b60006020820190508181036000830152611135816110f9565b9050919050565b7f4e487b7100000000000000000000000000000000000000000000000000000000600052601160045260246000fd5b600061117682610bae565b915061118183610bae565b92508282019050808211156111995761119861113c565b5b92915050565b7f4e487b7100000000000000000000000000000000000000000000000000000000600052604160045260246000fd5b7f4e487b7100000000000000000000000000000000000000000000000000000000600052602260045260246000fd5b6000600282049050600182168061121557607f821691505b602082108103611228576112276111ce565b5b50919050565b7f4e487b7100000000000000000000000000000000000000000000000000000000600052603260045260246000fd5b60008190508160005260206000209050919050565b60006020601f8301049050919050565b600082821b905092915050565b6000600883026112bf7fffffffffffffffffffffffffffffffffffffffffffffffffffffffffffffffff82611282565b6112c98683611282565b95508019841693508086168417925050509392505050565b6000819050919050565b60006113066113016112fc84610bae565b6112e1565b610bae565b9050919050565b6000819050919050565b611320836112eb565b61133461132c8261130d565b84845461128f565b825550505050565b600090565b61134961133c565b611354818484611317565b505050565b5b818110156113785761136d600082611341565b60018101905061135a565b5050565b601f8211156113bd5761138e8161125d565b61139784611272565b810160208510156113a6578190505b6113ba6113b285611272565b830182611359565b50505b505050565b600082821c905092915050565b60006113e0600019846008026113c2565b1980831691505092915050565b60006113f983836113cf565b9150826002028217905092915050565b61141282610c4c565b67ffffffffffffffff81111561142b5761142a61119f565b5b61143582546111fd565b61144082828561137c565b600060209050601f8311600181146114735760008415611461578287015190505b61146b85826113ed565b8655506114d3565b601f1984166114818661125d565b60005b828110156114a957848901518255600182019150602085019450602081019050611484565b868310156114c657848901516114c2601f8916826113cf565b8355505b6001600288020188555050505b505050505050565b60006114e682610c4c565b6114f08185610fe7565b9350611500818560208601610c68565b61150981610c92565b840191505092915050565b6000602082019050818103600083015261152e81846114db565b905092915050565b7f54686520766f74696e6720706572696f64206973206e6f742066696e6973686560008201527f6420796574210000000000000000000000000000000000000000000000000000602082015250565b6000611592602683610fe7565b915061159d82611536565b604082019050919050565b600060208201905081810360008301526115c181611585565b905091905056fea26469706673582212200f8c9578dfd79cdbcd4cf920da88d249cd20ca547247ba962db01e192c598be464736f6c634300081b0033",
  "linkReferences": {},
  "deployedLinkReferences": {}
}