{
  "_format": "hh-sol-artifact-1",
  "contractName": "Voting",
  "sourceName": "contracts/Voting.sol",
  "abi": [
    {
      "inputs": [
        {
          "internalType": "string[]",
          "name": "_candidate_names",
          "type": "string[]"
        }
      ],
      "stateMutability": "nonpayable",
      "type": "constructor"
    },
    {
      "inputs": [
        {
          "internalType": "address",
          "name": "owner",
          "type": "address"
        }
      ],
      "name": "OwnableInvalidOwner",
      "type": "error"
    },
    {
      "inputs": [
        {
          "internalType": "address",
          "name": "account",
          "type": "address"
        }
      ],
      "name": "OwnableUnauthorizedAccount",
      "type": "error"
    },
    {
      "anonymous": false,
      "inputs": [
        {
          "indexed": false,
          "internalType": "uint256",
          "name": "candidate_id",
          "type": "uint256"
        }
      ],
      "name": "CastedVote",
      "type": "event"
    },
    {
      "anonymous": false,
      "inputs": [
        {
          "indexed": true,
          "internalType": "address",
          "name": "previousOwner",
          "type": "address"
        },
        {
          "indexed": true,
          "internalType": "address",
          "name": "newOwner",
          "type": "address"
        }
      ],
      "name": "OwnershipTransferred",
      "type": "event"
    },
    {
      "inputs": [],
      "name": "endVotingPeriod",
      "outputs": [],
      "stateMutability": "nonpayable",
      "type": "function"
    },
    {
      "inputs": [
        {
          "internalType": "uint256",
          "name": "id",
          "type": "uint256"
        }
      ],
      "name": "getCandidate",
      "outputs": [
        {
          "components": [
            {
              "internalType": "uint256",
              "name": "id",
              "type": "uint256"
            },
            {
              "internalType": "string",
              "name": "name",
              "type": "string"
            },
            {
              "internalType": "uint256",
              "name": "votes",
              "type": "uint256"
            }
          ],
          "internalType": "struct Voting.Candidate",
          "name": "",
          "type": "tuple"
        }
      ],
      "stateMutability": "view",
      "type": "function"
    },
    {
      "inputs": [
        {
          "internalType": "uint256",
          "name": "candidate_id",
          "type": "uint256"
        }
      ],
      "name": "getCandidateVotesCount",
      "outputs": [
        {
          "internalType": "uint256",
          "name": "votes_count",
          "type": "uint256"
        }
      ],
      "stateMutability": "view",
      "type": "function"
    },
    {
      "inputs": [],
      "name": "getCandidates",
      "outputs": [
        {
          "components": [
            {
              "internalType": "uint256",
              "name": "id",
              "type": "uint256"
            },
            {
              "internalType": "string",
              "name": "name",
              "type": "string"
            },
            {
              "internalType": "uint256",
              "name": "votes",
              "type": "uint256"
            }
          ],
          "internalType": "struct Voting.Candidate[]",
          "name": "",
          "type": "tuple[]"
        }
      ],
      "stateMutability": "view",
      "type": "function"
    },
    {
      "inputs": [],
      "name": "getCandidatesCount",
      "outputs": [
        {
          "internalType": "uint256",
          "name": "",
          "type": "uint256"
        }
      ],
      "stateMutability": "view",
      "type": "function"
    },
    {
      "inputs": [],
      "name": "getVotingPeriodStatus",
      "outputs": [
        {
          "internalType": "bool",
          "name": "",
          "type": "bool"
        }
      ],
      "stateMutability": "view",
      "type": "function"
    },
    {
      "inputs": [],
      "name": "getWinner",
      "outputs": [
        {
          "components": [
            {
              "internalType": "uint256",
              "name": "id",
              "type": "uint256"
            },
            {
              "internalType": "string",
              "name": "name",
              "type": "string"
            },
            {
              "internalType": "uint256",
              "name": "votes",
              "type": "uint256"
            }
          ],
          "internalType": "struct Voting.Candidate",
          "name": "winner",
          "type": "tuple"
        }
      ],
      "stateMutability": "view",
      "type": "function"
    },
    {
      "inputs": [],
      "name": "owner",
      "outputs": [
        {
          "internalType": "address",
          "name": "",
          "type": "address"
        }
      ],
      "stateMutability": "view",
      "type": "function"
    },
    {
      "inputs": [],
      "name": "renounceOwnership",
      "outputs": [],
      "stateMutability": "nonpayable",
      "type": "function"
    },
    {
      "inputs": [],
      "name": "startVotingPeriod",
      "outputs": [],
      "stateMutability": "nonpayable",
      "type": "function"
    },
    {
      "inputs": [
        {
          "internalType": "address",
          "name": "newOwner",
          "type": "address"
        }
      ],
      "name": "transferOwnership",
      "outputs": [],
      "stateMutability": "nonpayable",
      "type": "function"
    },
    {
      "inputs": [
        {
          "internalType": "uint256",
          "name": "candidate_id",
          "type": "uint256"
        }
      ],
      "name": "vote",
      "outputs": [],
      "stateMutability": "nonpayable",
      "type": "function"
    }
  ],
  "bytecode": "0x608060405234801561001057600080fd5b506040516119bf3803806119bf8339818101604052810190610032919061048d565b33600073ffffffffffffffffffffffffffffffffffffffff168173ffffffffffffffffffffffffffffffffffffffff16036100a55760006040517f1e4fbdf700000000000000000000000000000000000000000000000000000000815260040161009c9190610517565b60405180910390fd5b6100b48161016e60201b60201c565b5080516003819055506000600460006101000a81548160ff02191690831515021790555060005b815181101561016757604051806060016040528082815260200183838151811061010857610107610532565b5b6020026020010151815260200160008152506002600083815260200190815260200160002060008201518160000155602082015181600101908161014c9190610782565b506040820151816002015590505080806001019150506100db565b5050610854565b60008060009054906101000a900473ffffffffffffffffffffffffffffffffffffffff169050816000806101000a81548173ffffffffffffffffffffffffffffffffffffffff021916908373ffffffffffffffffffffffffffffffffffffffff1602179055508173ffffffffffffffffffffffffffffffffffffffff168173ffffffffffffffffffffffffffffffffffffffff167f8be0079c531659141344cd1fd0a4f28419497f9722a3daafe3b4186f6b6457e060405160405180910390a35050565b6000604051905090565b600080fd5b600080fd5b600080fd5b6000601f19601f8301169050919050565b7f4e487b7100000000000000000000000000000000000000000000000000000000600052604160045260246000fd5b6102948261024b565b810181811067ffffffffffffffff821117156102b3576102b261025c565b5b80604052505050565b60006102c6610232565b90506102d2828261028b565b919050565b600067ffffffffffffffff8211156102f2576102f161025c565b5b602082029050602081019050919050565b600080fd5b600080fd5b600067ffffffffffffffff8211156103285761032761025c565b5b6103318261024b565b9050602081019050919050565b60005b8381101561035c578082015181840152602081019050610341565b60008484015250505050565b600061037b6103768461030d565b6102bc565b90508281526020810184848401111561039757610396610308565b5b6103a284828561033e565b509392505050565b600082601f8301126103bf576103be610246565b5b81516103cf848260208601610368565b91505092915050565b60006103eb6103e6846102d7565b6102bc565b9050808382526020820190506020840283018581111561040e5761040d610303565b5b835b8181101561045557805167ffffffffffffffff81111561043357610432610246565b5b80860161044089826103aa565b85526020850194505050602081019050610410565b5050509392505050565b600082601f83011261047457610473610246565b5b81516104848482602086016103d8565b91505092915050565b6000602082840312156104a3576104a261023c565b5b600082015167ffffffffffffffff8111156104c1576104c0610241565b5b6104cd8482850161045f565b91505092915050565b600073ffffffffffffffffffffffffffffffffffffffff82169050919050565b6000610501826104d6565b9050919050565b610511816104f6565b82525050565b600060208201905061052c6000830184610508565b92915050565b7f4e487b7100000000000000000000000000000000000000000000000000000000600052603260045260246000fd5b600081519050919050565b7f4e487b7100000000000000000000000000000000000000000000000000000000600052602260045260246000fd5b600060028204905060018216806105b357607f821691505b6020821081036105c6576105c561056c565b5b50919050565b60008190508160005260206000209050919050565b60006020601f8301049050919050565b600082821b905092915050565b60006008830261062e7fffffffffffffffffffffffffffffffffffffffffffffffffffffffffffffffff826105f1565b61063886836105f1565b95508019841693508086168417925050509392505050565b6000819050919050565b6000819050919050565b600061067f61067a61067584610650565b61065a565b610650565b9050919050565b6000819050919050565b61069983610664565b6106ad6106a582610686565b8484546105fe565b825550505050565b600090565b6106c26106b5565b6106cd818484610690565b505050565b5b818110156106f1576106e66000826106ba565b6001810190506106d3565b5050565b601f82111561073657610707816105cc565b610710846105e1565b8101602085101561071f578190505b61073361072b856105e1565b8301826106d2565b50505b505050565b600082821c905092915050565b60006107596000198460080261073b565b1980831691505092915050565b60006107728383610748565b9150826002028217905092915050565b61078b82610561565b67ffffffffffffffff8111156107a4576107a361025c565b5b6107ae825461059b565b6107b98282856106f5565b600060209050601f8311600181146107ec57600084156107da578287015190505b6107e48582610766565b86555061084c565b601f1984166107fa866105cc565b60005b82811015610822578489015182556001820191506020850194506020810190506107fd565b8683101561083f578489015161083b601f891682610748565b8355505b6001600288020188555050505b505050505050565b61115c806108636000396000f3fe608060405234801561001057600080fd5b50600436106100b45760003560e01c80638e7ea5b2116100715780638e7ea5b21461017b578063bb9aa28f14610199578063c64482ab146101b7578063d8c7e1be146101c1578063e80a57a5146101df578063f2fde38b146101e9576100b4565b80630121b93f146100b957806306a49fce146100d55780630bfdd638146100f357806335b8e82014610123578063715018a6146101535780638da5cb5b1461015d575b600080fd5b6100d360048036038101906100ce9190610a97565b610205565b005b6100dd6103eb565b6040516100ea9190610c75565b60405180910390f35b61010d60048036038101906101089190610a97565b61054b565b60405161011a9190610ca6565b60405180910390f35b61013d60048036038101906101389190610a97565b61056b565b60405161014a9190610d11565b60405180910390f35b61015b61063e565b005b610165610652565b6040516101729190610d74565b60405180910390f35b61018361067b565b6040516101909190610d11565b60405180910390f35b6101a16107f7565b6040516101ae9190610ca6565b60405180910390f35b6101bf610801565b005b6101c9610826565b6040516101d69190610daa565b60405180910390f35b6101e761083d565b005b61020360048036038101906101fe9190610df1565b610862565b005b60011515600460009054906101000a900460ff1615151461025b576040517f08c379a000000000000000000000000000000000000000000000000000000000815260040161025290610e7b565b60405180910390fd5b600160003373ffffffffffffffffffffffffffffffffffffffff1673ffffffffffffffffffffffffffffffffffffffff16815260200190815260200160002060009054906101000a900460ff16156102e8576040517f08c379a00000000000000000000000000000000000000000000000000000000081526004016102df90610ee7565b60405180910390fd5b600354811061032c576040517f08c379a000000000000000000000000000000000000000000000000000000000815260040161032390610f53565b60405180910390fd5b60018060003373ffffffffffffffffffffffffffffffffffffffff1673ffffffffffffffffffffffffffffffffffffffff16815260200190815260200160002060006101000a81548160ff02191690831515021790555060016002600083815260200190815260200160002060020160008282546103aa9190610fa2565b925050819055507fcae3127a7dc63798cf005dc4725b886a06b7beee7b4a51cefdb5975db78d6861816040516103e09190610ca6565b60405180910390a150565b6060600060035467ffffffffffffffff81111561040b5761040a610fd6565b5b60405190808252806020026020018201604052801561044457816020015b610431610a3b565b8152602001906001900390816104295790505b50905060005b60035481101561054357600260008281526020019081526020016000206040518060600160405290816000820154815260200160018201805461048c90611034565b80601f01602080910402602001604051908101604052809291908181526020018280546104b890611034565b80156105055780601f106104da57610100808354040283529160200191610505565b820191906000526020600020905b8154815290600101906020018083116104e857829003601f168201915b5050505050815260200160028201548152505082828151811061052b5761052a611065565b5b6020026020010181905250808060010191505061044a565b508091505090565b600060026000838152602001908152602001600020600201549050919050565b610573610a3b565b60026000838152602001908152602001600020604051806060016040529081600082015481526020016001820180546105ab90611034565b80601f01602080910402602001604051908101604052809291908181526020018280546105d790611034565b80156106245780601f106105f957610100808354040283529160200191610624565b820191906000526020600020905b81548152906001019060200180831161060757829003601f168201915b505050505081526020016002820154815250509050919050565b6106466108e8565b610650600061096f565b565b60008060009054906101000a900473ffffffffffffffffffffffffffffffffffffffff16905090565b610683610a3b565b60001515600460009054906101000a900460ff161515146106d9576040517f08c379a00000000000000000000000000000000000000000000000000000000081526004016106d090611106565b60405180910390fd5b6000805b60035481101561072c5760026000838152602001908152602001600020600201546002600083815260200190815260200160002060020154111561071f578091505b80806001019150506106dd565b50600260008281526020019081526020016000206040518060600160405290816000820154815260200160018201805461076590611034565b80601f016020809104026020016040519081016040528092919081815260200182805461079190611034565b80156107de5780601f106107b3576101008083540402835291602001916107de565b820191906000526020600020905b8154815290600101906020018083116107c157829003601f168201915b5050505050815260200160028201548152505091505090565b6000600354905090565b6108096108e8565b6001600460006101000a81548160ff021916908315150217905550565b6000600460009054906101000a900460ff16905090565b6108456108e8565b6000600460006101000a81548160ff021916908315150217905550565b61086a6108e8565b600073ffffffffffffffffffffffffffffffffffffffff168173ffffffffffffffffffffffffffffffffffffffff16036108dc5760006040517f1e4fbdf70000000000000000000000000000000000000000000000000000000081526004016108d39190610d74565b60405180910390fd5b6108e58161096f565b50565b6108f0610a33565b73ffffffffffffffffffffffffffffffffffffffff1661090e610652565b73ffffffffffffffffffffffffffffffffffffffff161461096d57610931610a33565b6040517f118cdaa70000000000000000000000000000000000000000000000000000000081526004016109649190610d74565b60405180910390fd5b565b60008060009054906101000a900473ffffffffffffffffffffffffffffffffffffffff169050816000806101000a81548173ffffffffffffffffffffffffffffffffffffffff021916908373ffffffffffffffffffffffffffffffffffffffff1602179055508173ffffffffffffffffffffffffffffffffffffffff168173ffffffffffffffffffffffffffffffffffffffff167f8be0079c531659141344cd1fd0a4f28419497f9722a3daafe3b4186f6b6457e060405160405180910390a35050565b600033905090565b60405180606001604052806000815260200160608152602001600081525090565b600080fd5b6000819050919050565b610a7481610a61565b8114610a7f57600080fd5b50565b600081359050610a9181610a6b565b92915050565b600060208284031215610aad57610aac610a5c565b5b6000610abb84828501610a82565b91505092915050565b600081519050919050565b600082825260208201905092915050565b6000819050602082019050919050565b610af981610a61565b82525050565b600081519050919050565b600082825260208201905092915050565b60005b83811015610b39578082015181840152602081019050610b1e565b60008484015250505050565b6000601f19601f8301169050919050565b6000610b6182610aff565b610b6b8185610b0a565b9350610b7b818560208601610b1b565b610b8481610b45565b840191505092915050565b6000606083016000830151610ba76000860182610af0565b5060208301518482036020860152610bbf8282610b56565b9150506040830151610bd46040860182610af0565b508091505092915050565b6000610beb8383610b8f565b905092915050565b6000602082019050919050565b6000610c0b82610ac4565b610c158185610acf565b935083602082028501610c2785610ae0565b8060005b85811015610c635784840389528151610c448582610bdf565b9450610c4f83610bf3565b925060208a01995050600181019050610c2b565b50829750879550505050505092915050565b60006020820190508181036000830152610c8f8184610c00565b905092915050565b610ca081610a61565b82525050565b6000602082019050610cbb6000830184610c97565b92915050565b6000606083016000830151610cd96000860182610af0565b5060208301518482036020860152610cf18282610b56565b9150506040830151610d066040860182610af0565b508091505092915050565b60006020820190508181036000830152610d2b8184610cc1565b905092915050565b600073ffffffffffffffffffffffffffffffffffffffff82169050919050565b6000610d5e82610d33565b9050919050565b610d6e81610d53565b82525050565b6000602082019050610d896000830184610d65565b92915050565b60008115159050919050565b610da481610d8f565b82525050565b6000602082019050610dbf6000830184610d9b565b92915050565b610dce81610d53565b8114610dd957600080fd5b50565b600081359050610deb81610dc5565b92915050565b600060208284031215610e0757610e06610a5c565b5b6000610e1584828501610ddc565b91505092915050565b600082825260208201905092915050565b7f566f74696e6720706572696f64206e6f742072756e6e696e6721000000000000600082015250565b6000610e65601a83610e1e565b9150610e7082610e2f565b602082019050919050565b60006020820190508181036000830152610e9481610e58565b9050919050565b7f596f7520616c726561647920766f746564210000000000000000000000000000600082015250565b6000610ed1601283610e1e565b9150610edc82610e9b565b602082019050919050565b60006020820190508181036000830152610f0081610ec4565b9050919050565b7f5468652063616e64696461746520646f6573206e6f7420657869737421000000600082015250565b6000610f3d601d83610e1e565b9150610f4882610f07565b602082019050919050565b60006020820190508181036000830152610f6c81610f30565b9050919050565b7f4e487b7100000000000000000000000000000000000000000000000000000000600052601160045260246000fd5b6000610fad82610a61565b9150610fb883610a61565b9250828201905080821115610fd057610fcf610f73565b5b92915050565b7f4e487b7100000000000000000000000000000000000000000000000000000000600052604160045260246000fd5b7f4e487b7100000000000000000000000000000000000000000000000000000000600052602260045260246000fd5b6000600282049050600182168061104c57607f821691505b60208210810361105f5761105e611005565b5b50919050565b7f4e487b7100000000000000000000000000000000000000000000000000000000600052603260045260246000fd5b7f54686520766f74696e6720706572696f64206973206e6f742066696e6973686560008201527f6420796574210000000000000000000000000000000000000000000000000000602082015250565b60006110f0602683610e1e565b91506110fb82611094565b604082019050919050565b6000602082019050818103600083015261111f816110e3565b905091905056fea2646970667358221220094e4622e23df3554e9a45988fd12ba5e6d18d1ba017569e2c2f85460d304cca64736f6c634300081b0033",
  "linkReferences": {},
  "deployedLinkReferences": {}
}