{
  "_format": "hh-sol-artifact-1",
  "contractName": "Voting",
  "sourceName": "contracts/Voting.sol",
  "abi": [
    {
      "inputs": [
        {
          "internalType": "string[]",
          "name": "_candidate_names",
          "type": "string[]"
        },
        {
          "internalType": "address[]",
          "name": "_candidate_addresses",
          "type": "address[]"
        }
      ],
      "stateMutability": "nonpayable",
      "type": "constructor"
    },
    {
      "inputs": [
        {
          "internalType": "address",
          "name": "owner",
          "type": "address"
        }
      ],
      "name": "OwnableInvalidOwner",
      "type": "error"
    },
    {
      "inputs": [
        {
          "internalType": "address",
          "name": "account",
          "type": "address"
        }
      ],
      "name": "OwnableUnauthorizedAccount",
      "type": "error"
    },
    {
      "anonymous": false,
      "inputs": [
        {
          "indexed": false,
          "internalType": "uint256",
          "name": "candidate_id",
          "type": "uint256"
        }
      ],
      "name": "CastedVote",
      "type": "event"
    },
    {
      "anonymous": false,
      "inputs": [
        {
          "indexed": true,
          "internalType": "address",
          "name": "previousOwner",
          "type": "address"
        },
        {
          "indexed": true,
          "internalType": "address",
          "name": "newOwner",
          "type": "address"
        }
      ],
      "name": "OwnershipTransferred",
      "type": "event"
    },
    {
      "inputs": [],
      "name": "congratulateWinner",
      "outputs": [],
      "stateMutability": "payable",
      "type": "function"
    },
    {
      "inputs": [],
      "name": "endVotingPeriod",
      "outputs": [],
      "stateMutability": "nonpayable",
      "type": "function"
    },
    {
      "inputs": [],
      "name": "getBalance",
      "outputs": [
        {
          "internalType": "uint256",
          "name": "",
          "type": "uint256"
        }
      ],
      "stateMutability": "view",
      "type": "function"
    },
    {
      "inputs": [
        {
          "internalType": "uint256",
          "name": "id",
          "type": "uint256"
        }
      ],
      "name": "getCandidate",
      "outputs": [
        {
          "components": [
            {
              "internalType": "uint256",
              "name": "id",
              "type": "uint256"
            },
            {
              "internalType": "string",
              "name": "name",
              "type": "string"
            },
            {
              "internalType": "uint256",
              "name": "votes",
              "type": "uint256"
            },
            {
              "internalType": "address",
              "name": "candidate_address",
              "type": "address"
            }
          ],
          "internalType": "struct Voting.Candidate",
          "name": "",
          "type": "tuple"
        }
      ],
      "stateMutability": "view",
      "type": "function"
    },
    {
      "inputs": [
        {
          "internalType": "uint256",
          "name": "candidate_id",
          "type": "uint256"
        }
      ],
      "name": "getCandidateVotesCount",
      "outputs": [
        {
          "internalType": "uint256",
          "name": "votes_count",
          "type": "uint256"
        }
      ],
      "stateMutability": "view",
      "type": "function"
    },
    {
      "inputs": [],
      "name": "getCandidates",
      "outputs": [
        {
          "components": [
            {
              "internalType": "uint256",
              "name": "id",
              "type": "uint256"
            },
            {
              "internalType": "string",
              "name": "name",
              "type": "string"
            },
            {
              "internalType": "uint256",
              "name": "votes",
              "type": "uint256"
            },
            {
              "internalType": "address",
              "name": "candidate_address",
              "type": "address"
            }
          ],
          "internalType": "struct Voting.Candidate[]",
          "name": "",
          "type": "tuple[]"
        }
      ],
      "stateMutability": "view",
      "type": "function"
    },
    {
      "inputs": [],
      "name": "getCandidatesCount",
      "outputs": [
        {
          "internalType": "uint256",
          "name": "",
          "type": "uint256"
        }
      ],
      "stateMutability": "view",
      "type": "function"
    },
    {
      "inputs": [],
      "name": "getVotingPeriodStatus",
      "outputs": [
        {
          "internalType": "bool",
          "name": "",
          "type": "bool"
        }
      ],
      "stateMutability": "view",
      "type": "function"
    },
    {
      "inputs": [],
      "name": "getWinner",
      "outputs": [
        {
          "components": [
            {
              "internalType": "uint256",
              "name": "id",
              "type": "uint256"
            },
            {
              "internalType": "string",
              "name": "name",
              "type": "string"
            },
            {
              "internalType": "uint256",
              "name": "votes",
              "type": "uint256"
            },
            {
              "internalType": "address",
              "name": "candidate_address",
              "type": "address"
            }
          ],
          "internalType": "struct Voting.Candidate",
          "name": "winner",
          "type": "tuple"
        }
      ],
      "stateMutability": "view",
      "type": "function"
    },
    {
      "inputs": [],
      "name": "owner",
      "outputs": [
        {
          "internalType": "address",
          "name": "",
          "type": "address"
        }
      ],
      "stateMutability": "view",
      "type": "function"
    },
    {
      "inputs": [],
      "name": "renounceOwnership",
      "outputs": [],
      "stateMutability": "nonpayable",
      "type": "function"
    },
    {
      "inputs": [],
      "name": "startVotingPeriod",
      "outputs": [],
      "stateMutability": "nonpayable",
      "type": "function"
    },
    {
      "inputs": [
        {
          "internalType": "address",
          "name": "newOwner",
          "type": "address"
        }
      ],
      "name": "transferOwnership",
      "outputs": [],
      "stateMutability": "nonpayable",
      "type": "function"
    },
    {
      "inputs": [
        {
          "internalType": "uint256",
          "name": "candidate_id",
          "type": "uint256"
        }
      ],
      "name": "vote",
      "outputs": [],
      "stateMutability": "payable",
      "type": "function"
    }
  ],
  "bytecode": "0x608060405234801561001057600080fd5b506040516122103803806122108339818101604052810190610032919061062c565b33600073ffffffffffffffffffffffffffffffffffffffff168173ffffffffffffffffffffffffffffffffffffffff16036100a55760006040517f1e4fbdf700000000000000000000000000000000000000000000000000000000815260040161009c91906106b3565b60405180910390fd5b6100b4816101ec60201b60201c565b5081516003819055506000600460006101000a81548160ff02191690831515021790555060005b82518110156101e4576040518060800160405280828152602001848381518110610108576101076106ce565b5b602002602001015181526020016000815260200183838151811061012f5761012e6106ce565b5b602002602001015173ffffffffffffffffffffffffffffffffffffffff1681525060026000838152602001908152602001600020600082015181600001556020820151816001019081610182919061091e565b506040820151816002015560608201518160030160006101000a81548173ffffffffffffffffffffffffffffffffffffffff021916908373ffffffffffffffffffffffffffffffffffffffff16021790555090505080806001019150506100db565b5050506109f0565b60008060009054906101000a900473ffffffffffffffffffffffffffffffffffffffff169050816000806101000a81548173ffffffffffffffffffffffffffffffffffffffff021916908373ffffffffffffffffffffffffffffffffffffffff1602179055508173ffffffffffffffffffffffffffffffffffffffff168173ffffffffffffffffffffffffffffffffffffffff167f8be0079c531659141344cd1fd0a4f28419497f9722a3daafe3b4186f6b6457e060405160405180910390a35050565b6000604051905090565b600080fd5b600080fd5b600080fd5b6000601f19601f8301169050919050565b7f4e487b7100000000000000000000000000000000000000000000000000000000600052604160045260246000fd5b610312826102c9565b810181811067ffffffffffffffff82111715610331576103306102da565b5b80604052505050565b60006103446102b0565b90506103508282610309565b919050565b600067ffffffffffffffff8211156103705761036f6102da565b5b602082029050602081019050919050565b600080fd5b600080fd5b600067ffffffffffffffff8211156103a6576103a56102da565b5b6103af826102c9565b9050602081019050919050565b60005b838110156103da5780820151818401526020810190506103bf565b60008484015250505050565b60006103f96103f48461038b565b61033a565b90508281526020810184848401111561041557610414610386565b5b6104208482856103bc565b509392505050565b600082601f83011261043d5761043c6102c4565b5b815161044d8482602086016103e6565b91505092915050565b600061046961046484610355565b61033a565b9050808382526020820190506020840283018581111561048c5761048b610381565b5b835b818110156104d357805167ffffffffffffffff8111156104b1576104b06102c4565b5b8086016104be8982610428565b8552602085019450505060208101905061048e565b5050509392505050565b600082601f8301126104f2576104f16102c4565b5b8151610502848260208601610456565b91505092915050565b600067ffffffffffffffff821115610526576105256102da565b5b602082029050602081019050919050565b600073ffffffffffffffffffffffffffffffffffffffff82169050919050565b600061056282610537565b9050919050565b61057281610557565b811461057d57600080fd5b50565b60008151905061058f81610569565b92915050565b60006105a86105a38461050b565b61033a565b905080838252602082019050602084028301858111156105cb576105ca610381565b5b835b818110156105f457806105e08882610580565b8452602084019350506020810190506105cd565b5050509392505050565b600082601f830112610613576106126102c4565b5b8151610623848260208601610595565b91505092915050565b60008060408385031215610643576106426102ba565b5b600083015167ffffffffffffffff811115610661576106606102bf565b5b61066d858286016104dd565b925050602083015167ffffffffffffffff81111561068e5761068d6102bf565b5b61069a858286016105fe565b9150509250929050565b6106ad81610557565b82525050565b60006020820190506106c860008301846106a4565b92915050565b7f4e487b7100000000000000000000000000000000000000000000000000000000600052603260045260246000fd5b600081519050919050565b7f4e487b7100000000000000000000000000000000000000000000000000000000600052602260045260246000fd5b6000600282049050600182168061074f57607f821691505b60208210810361076257610761610708565b5b50919050565b60008190508160005260206000209050919050565b60006020601f8301049050919050565b600082821b905092915050565b6000600883026107ca7fffffffffffffffffffffffffffffffffffffffffffffffffffffffffffffffff8261078d565b6107d4868361078d565b95508019841693508086168417925050509392505050565b6000819050919050565b6000819050919050565b600061081b610816610811846107ec565b6107f6565b6107ec565b9050919050565b6000819050919050565b61083583610800565b61084961084182610822565b84845461079a565b825550505050565b600090565b61085e610851565b61086981848461082c565b505050565b5b8181101561088d57610882600082610856565b60018101905061086f565b5050565b601f8211156108d2576108a381610768565b6108ac8461077d565b810160208510156108bb578190505b6108cf6108c78561077d565b83018261086e565b50505b505050565b600082821c905092915050565b60006108f5600019846008026108d7565b1980831691505092915050565b600061090e83836108e4565b9150826002028217905092915050565b610927826106fd565b67ffffffffffffffff8111156109405761093f6102da565b5b61094a8254610737565b610955828285610891565b600060209050601f8311600181146109885760008415610976578287015190505b6109808582610902565b8655506109e8565b601f19841661099686610768565b60005b828110156109be57848901518255600182019150602085019450602081019050610999565b868310156109db57848901516109d7601f8916826108e4565b8355505b6001600288020188555050505b505050505050565b611811806109ff6000396000f3fe6080604052600436106100dd5760003560e01c80638da5cb5b1161007f578063c64482ab11610059578063c64482ab14610270578063d8c7e1be14610287578063e80a57a5146102b2578063f2fde38b146102c9576100dd565b80638da5cb5b146101ef5780638e7ea5b21461021a578063bb9aa28f14610245576100dd565b806312065fe0116100bb57806312065fe01461016657806335b8e820146101915780636ffeb82b146101ce578063715018a6146101d8576100dd565b80630121b93f146100e257806306a49fce146100fe5780630bfdd63814610129575b600080fd5b6100fc60048036038101906100f79190610eaf565b6102f2565b005b34801561010a57600080fd5b5061011361051b565b60405161012091906110e1565b60405180910390f35b34801561013557600080fd5b50610150600480360381019061014b9190610eaf565b6106d1565b60405161015d9190611112565b60405180910390f35b34801561017257600080fd5b5061017b6106f1565b6040516101889190611112565b60405180910390f35b34801561019d57600080fd5b506101b860048036038101906101b39190610eaf565b6106f9565b6040516101c59190611190565b60405180910390f35b6101d6610822565b005b3480156101e457600080fd5b506101ed610925565b005b3480156101fb57600080fd5b50610204610939565b60405161021191906111c1565b60405180910390f35b34801561022657600080fd5b5061022f610962565b60405161023c9190611190565b60405180910390f35b34801561025157600080fd5b5061025a610b34565b6040516102679190611112565b60405180910390f35b34801561027c57600080fd5b50610285610b3e565b005b34801561029357600080fd5b5061029c610b63565b6040516102a991906111f7565b60405180910390f35b3480156102be57600080fd5b506102c7610b7a565b005b3480156102d557600080fd5b506102f060048036038101906102eb919061123e565b610c5d565b005b60011515600460009054906101000a900460ff16151514610348576040517f08c379a000000000000000000000000000000000000000000000000000000000815260040161033f906112c8565b60405180910390fd5b600160003373ffffffffffffffffffffffffffffffffffffffff1673ffffffffffffffffffffffffffffffffffffffff16815260200190815260200160002060009054906101000a900460ff16156103d5576040517f08c379a00000000000000000000000000000000000000000000000000000000081526004016103cc90611334565b60405180910390fd5b6003548110610419576040517f08c379a0000000000000000000000000000000000000000000000000000000008152600401610410906113a0565b60405180910390fd5b6000341161045c576040517f08c379a000000000000000000000000000000000000000000000000000000000815260040161045390611432565b60405180910390fd5b60018060003373ffffffffffffffffffffffffffffffffffffffff1673ffffffffffffffffffffffffffffffffffffffff16815260200190815260200160002060006101000a81548160ff02191690831515021790555060016002600083815260200190815260200160002060020160008282546104da9190611481565b925050819055507fcae3127a7dc63798cf005dc4725b886a06b7beee7b4a51cefdb5975db78d6861816040516105109190611112565b60405180910390a150565b6060600060035467ffffffffffffffff81111561053b5761053a6114b5565b5b60405190808252806020026020018201604052801561057457816020015b610561610e36565b8152602001906001900390816105595790505b50905060005b6003548110156106c95760026000828152602001908152602001600020604051806080016040529081600082015481526020016001820180546105bc90611513565b80601f01602080910402602001604051908101604052809291908181526020018280546105e890611513565b80156106355780601f1061060a57610100808354040283529160200191610635565b820191906000526020600020905b81548152906001019060200180831161061857829003601f168201915b50505050508152602001600282015481526020016003820160009054906101000a900473ffffffffffffffffffffffffffffffffffffffff1673ffffffffffffffffffffffffffffffffffffffff1673ffffffffffffffffffffffffffffffffffffffff16815250508282815181106106b1576106b0611544565b5b6020026020010181905250808060010191505061057a565b508091505090565b600060026000838152602001908152602001600020600201549050919050565b600047905090565b610701610e36565b600260008381526020019081526020016000206040518060800160405290816000820154815260200160018201805461073990611513565b80601f016020809104026020016040519081016040528092919081815260200182805461076590611513565b80156107b25780601f10610787576101008083540402835291602001916107b2565b820191906000526020600020905b81548152906001019060200180831161079557829003601f168201915b50505050508152602001600282015481526020016003820160009054906101000a900473ffffffffffffffffffffffffffffffffffffffff1673ffffffffffffffffffffffffffffffffffffffff1673ffffffffffffffffffffffffffffffffffffffff16815250509050919050565b60003411610865576040517f08c379a000000000000000000000000000000000000000000000000000000000815260040161085c906115bf565b60405180910390fd5b600061086f610962565b60600151905060008173ffffffffffffffffffffffffffffffffffffffff163460405161089b90611610565b60006040518083038185875af1925050503d80600081146108d8576040519150601f19603f3d011682016040523d82523d6000602084013e6108dd565b606091505b5050905080610921576040517f08c379a000000000000000000000000000000000000000000000000000000000815260040161091890611697565b60405180910390fd5b5050565b61092d610ce3565b6109376000610d6a565b565b60008060009054906101000a900473ffffffffffffffffffffffffffffffffffffffff16905090565b61096a610e36565b60001515600460009054906101000a900460ff161515146109c0576040517f08c379a00000000000000000000000000000000000000000000000000000000081526004016109b790611729565b60405180910390fd5b6000805b600354811015610a1357600260008381526020019081526020016000206002015460026000838152602001908152602001600020600201541115610a06578091505b80806001019150506109c4565b506002600082815260200190815260200160002060405180608001604052908160008201548152602001600182018054610a4c90611513565b80601f0160208091040260200160405190810160405280929190818152602001828054610a7890611513565b8015610ac55780601f10610a9a57610100808354040283529160200191610ac5565b820191906000526020600020905b815481529060010190602001808311610aa857829003601f168201915b50505050508152602001600282015481526020016003820160009054906101000a900473ffffffffffffffffffffffffffffffffffffffff1673ffffffffffffffffffffffffffffffffffffffff1673ffffffffffffffffffffffffffffffffffffffff168152505091505090565b6000600354905090565b610b46610ce3565b6001600460006101000a81548160ff021916908315150217905550565b6000600460009054906101000a900460ff16905090565b610b82610ce3565b6000600460006101000a81548160ff0219169083151502179055506000610ba7610962565b60600151905060008173ffffffffffffffffffffffffffffffffffffffff1647604051610bd390611610565b60006040518083038185875af1925050503d8060008114610c10576040519150601f19603f3d011682016040523d82523d6000602084013e610c15565b606091505b5050905080610c59576040517f08c379a0000000000000000000000000000000000000000000000000000000008152600401610c50906117bb565b60405180910390fd5b5050565b610c65610ce3565b600073ffffffffffffffffffffffffffffffffffffffff168173ffffffffffffffffffffffffffffffffffffffff1603610cd75760006040517f1e4fbdf7000000000000000000000000000000000000000000000000000000008152600401610cce91906111c1565b60405180910390fd5b610ce081610d6a565b50565b610ceb610e2e565b73ffffffffffffffffffffffffffffffffffffffff16610d09610939565b73ffffffffffffffffffffffffffffffffffffffff1614610d6857610d2c610e2e565b6040517f118cdaa7000000000000000000000000000000000000000000000000000000008152600401610d5f91906111c1565b60405180910390fd5b565b60008060009054906101000a900473ffffffffffffffffffffffffffffffffffffffff169050816000806101000a81548173ffffffffffffffffffffffffffffffffffffffff021916908373ffffffffffffffffffffffffffffffffffffffff1602179055508173ffffffffffffffffffffffffffffffffffffffff168173ffffffffffffffffffffffffffffffffffffffff167f8be0079c531659141344cd1fd0a4f28419497f9722a3daafe3b4186f6b6457e060405160405180910390a35050565b600033905090565b6040518060800160405280600081526020016060815260200160008152602001600073ffffffffffffffffffffffffffffffffffffffff1681525090565b600080fd5b6000819050919050565b610e8c81610e79565b8114610e9757600080fd5b50565b600081359050610ea981610e83565b92915050565b600060208284031215610ec557610ec4610e74565b5b6000610ed384828501610e9a565b91505092915050565b600081519050919050565b600082825260208201905092915050565b6000819050602082019050919050565b610f1181610e79565b82525050565b600081519050919050565b600082825260208201905092915050565b60005b83811015610f51578082015181840152602081019050610f36565b60008484015250505050565b6000601f19601f8301169050919050565b6000610f7982610f17565b610f838185610f22565b9350610f93818560208601610f33565b610f9c81610f5d565b840191505092915050565b600073ffffffffffffffffffffffffffffffffffffffff82169050919050565b6000610fd282610fa7565b9050919050565b610fe281610fc7565b82525050565b60006080830160008301516110006000860182610f08565b50602083015184820360208601526110188282610f6e565b915050604083015161102d6040860182610f08565b5060608301516110406060860182610fd9565b508091505092915050565b60006110578383610fe8565b905092915050565b6000602082019050919050565b600061107782610edc565b6110818185610ee7565b93508360208202850161109385610ef8565b8060005b858110156110cf57848403895281516110b0858261104b565b94506110bb8361105f565b925060208a01995050600181019050611097565b50829750879550505050505092915050565b600060208201905081810360008301526110fb818461106c565b905092915050565b61110c81610e79565b82525050565b60006020820190506111276000830184611103565b92915050565b60006080830160008301516111456000860182610f08565b506020830151848203602086015261115d8282610f6e565b91505060408301516111726040860182610f08565b5060608301516111856060860182610fd9565b508091505092915050565b600060208201905081810360008301526111aa818461112d565b905092915050565b6111bb81610fc7565b82525050565b60006020820190506111d660008301846111b2565b92915050565b60008115159050919050565b6111f1816111dc565b82525050565b600060208201905061120c60008301846111e8565b92915050565b61121b81610fc7565b811461122657600080fd5b50565b60008135905061123881611212565b92915050565b60006020828403121561125457611253610e74565b5b600061126284828501611229565b91505092915050565b600082825260208201905092915050565b7f566f74696e6720706572696f64206e6f742072756e6e696e6721000000000000600082015250565b60006112b2601a8361126b565b91506112bd8261127c565b602082019050919050565b600060208201905081810360008301526112e1816112a5565b9050919050565b7f596f7520616c726561647920766f746564210000000000000000000000000000600082015250565b600061131e60128361126b565b9150611329826112e8565b602082019050919050565b6000602082019050818103600083015261134d81611311565b9050919050565b7f5468652063616e64696461746520646f6573206e6f7420657869737421000000600082015250565b600061138a601d8361126b565b915061139582611354565b602082019050919050565b600060208201905081810360008301526113b98161137d565b9050919050565b7f596f752073686f756c6420636f6e7472696275746520746f2074686520656c6560008201527f6374696f6e2773206e6573742065676720746f20766f74652021000000000000602082015250565b600061141c603a8361126b565b9150611427826113c0565b604082019050919050565b6000602082019050818103600083015261144b8161140f565b9050919050565b7f4e487b7100000000000000000000000000000000000000000000000000000000600052601160045260246000fd5b600061148c82610e79565b915061149783610e79565b92508282019050808211156114af576114ae611452565b5b92915050565b7f4e487b7100000000000000000000000000000000000000000000000000000000600052604160045260246000fd5b7f4e487b7100000000000000000000000000000000000000000000000000000000600052602260045260246000fd5b6000600282049050600182168061152b57607f821691505b60208210810361153e5761153d6114e4565b5b50919050565b7f4e487b7100000000000000000000000000000000000000000000000000000000600052603260045260246000fd5b7f416d6f756e74206d7573742062652067726561746572207468616e2030000000600082015250565b60006115a9601d8361126b565b91506115b482611573565b602082019050919050565b600060208201905081810360008301526115d88161159c565b9050919050565b600081905092915050565b50565b60006115fa6000836115df565b9150611605826115ea565b600082019050919050565b600061161b826115ed565b9150819050919050565b7f4661696c656420746f2073656e6420457468657220746f207468652077696e6e60008201527f6572000000000000000000000000000000000000000000000000000000000000602082015250565b600061168160228361126b565b915061168c82611625565b604082019050919050565b600060208201905081810360008301526116b081611674565b9050919050565b7f54686520766f74696e6720706572696f64206973206e6f742066696e6973686560008201527f6420796574210000000000000000000000000000000000000000000000000000602082015250565b600061171360268361126b565b915061171e826116b7565b604082019050919050565b6000602082019050818103600083015261174281611706565b9050919050565b7f4661696c656420746f2073656e6420746865206e6573742065676720746f207460008201527f68652077696e6e65720000000000000000000000000000000000000000000000602082015250565b60006117a560298361126b565b91506117b082611749565b604082019050919050565b600060208201905081810360008301526117d481611798565b905091905056fea2646970667358221220bed6447c156e5b5be070bfe8a2452458cd1e07e697cda916721ca40fcc48d27d64736f6c634300081b0033",
  "linkReferences": {},
  "deployedLinkReferences": {}
}